{
  "_format": "hh-sol-artifact-1",
  "contractName": "NFTMarketplace",
  "sourceName": "contracts/NFTMarketplace.sol",
  "abi": [
    {
      "inputs": [],
      "stateMutability": "nonpayable",
      "type": "constructor"
    },
    {
      "anonymous": false,
      "inputs": [
        {
          "indexed": true,
          "internalType": "address",
          "name": "owner",
          "type": "address"
        },
        {
          "indexed": true,
          "internalType": "address",
          "name": "approved",
          "type": "address"
        },
        {
          "indexed": true,
          "internalType": "uint256",
          "name": "tokenId",
          "type": "uint256"
        }
      ],
      "name": "Approval",
      "type": "event"
    },
    {
      "anonymous": false,
      "inputs": [
        {
          "indexed": true,
          "internalType": "address",
          "name": "owner",
          "type": "address"
        },
        {
          "indexed": true,
          "internalType": "address",
          "name": "operator",
          "type": "address"
        },
        {
          "indexed": false,
          "internalType": "bool",
          "name": "approved",
          "type": "bool"
        }
      ],
      "name": "ApprovalForAll",
      "type": "event"
    },
    {
      "anonymous": false,
      "inputs": [
        {
          "indexed": true,
          "internalType": "uint256",
          "name": "tokenId",
          "type": "uint256"
        },
        {
          "indexed": false,
          "internalType": "address",
          "name": "seller",
          "type": "address"
        },
        {
          "indexed": false,
          "internalType": "address",
          "name": "owner",
          "type": "address"
        },
        {
          "indexed": false,
          "internalType": "uint256",
          "name": "price",
          "type": "uint256"
        },
        {
          "indexed": false,
          "internalType": "bool",
          "name": "sold",
          "type": "bool"
        }
      ],
      "name": "MarketItemCreated",
      "type": "event"
    },
    {
      "anonymous": false,
      "inputs": [
        {
          "indexed": true,
          "internalType": "address",
          "name": "from",
          "type": "address"
        },
        {
          "indexed": true,
          "internalType": "address",
          "name": "to",
          "type": "address"
        },
        {
          "indexed": true,
          "internalType": "uint256",
          "name": "tokenId",
          "type": "uint256"
        }
      ],
      "name": "Transfer",
      "type": "event"
    },
    {
      "inputs": [
        {
          "internalType": "address",
          "name": "to",
          "type": "address"
        },
        {
          "internalType": "uint256",
          "name": "tokenId",
          "type": "uint256"
        }
      ],
      "name": "approve",
      "outputs": [],
      "stateMutability": "nonpayable",
      "type": "function"
    },
    {
      "inputs": [
        {
          "internalType": "address",
          "name": "owner",
          "type": "address"
        }
      ],
      "name": "balanceOf",
      "outputs": [
        {
          "internalType": "uint256",
          "name": "",
          "type": "uint256"
        }
      ],
      "stateMutability": "view",
      "type": "function"
    },
    {
      "inputs": [
        {
          "internalType": "uint256",
          "name": "tokenId",
          "type": "uint256"
        }
      ],
      "name": "createMarketSale",
      "outputs": [],
      "stateMutability": "payable",
      "type": "function"
    },
    {
      "inputs": [
        {
          "internalType": "string",
          "name": "tokenURI",
          "type": "string"
        },
        {
          "internalType": "uint256",
          "name": "price",
          "type": "uint256"
        }
      ],
      "name": "createToken",
      "outputs": [
        {
          "internalType": "uint256",
          "name": "",
          "type": "uint256"
        }
      ],
      "stateMutability": "payable",
      "type": "function"
    },
    {
      "inputs": [],
      "name": "fetchItemsListed",
      "outputs": [
        {
          "components": [
            {
              "internalType": "uint256",
              "name": "tokenId",
              "type": "uint256"
            },
            {
              "internalType": "address payable",
              "name": "seller",
              "type": "address"
            },
            {
              "internalType": "address payable",
              "name": "owner",
              "type": "address"
            },
            {
              "internalType": "uint256",
              "name": "price",
              "type": "uint256"
            },
            {
              "internalType": "bool",
              "name": "sold",
              "type": "bool"
            }
          ],
          "internalType": "struct NFTMarketplace.MarketItem[]",
          "name": "",
          "type": "tuple[]"
        }
      ],
      "stateMutability": "view",
      "type": "function"
    },
    {
      "inputs": [],
      "name": "fetchMarketItems",
      "outputs": [
        {
          "components": [
            {
              "internalType": "uint256",
              "name": "tokenId",
              "type": "uint256"
            },
            {
              "internalType": "address payable",
              "name": "seller",
              "type": "address"
            },
            {
              "internalType": "address payable",
              "name": "owner",
              "type": "address"
            },
            {
              "internalType": "uint256",
              "name": "price",
              "type": "uint256"
            },
            {
              "internalType": "bool",
              "name": "sold",
              "type": "bool"
            }
          ],
          "internalType": "struct NFTMarketplace.MarketItem[]",
          "name": "",
          "type": "tuple[]"
        }
      ],
      "stateMutability": "view",
      "type": "function"
    },
    {
      "inputs": [],
      "name": "fetchMyNFTs",
      "outputs": [
        {
          "components": [
            {
              "internalType": "uint256",
              "name": "tokenId",
              "type": "uint256"
            },
            {
              "internalType": "address payable",
              "name": "seller",
              "type": "address"
            },
            {
              "internalType": "address payable",
              "name": "owner",
              "type": "address"
            },
            {
              "internalType": "uint256",
              "name": "price",
              "type": "uint256"
            },
            {
              "internalType": "bool",
              "name": "sold",
              "type": "bool"
            }
          ],
          "internalType": "struct NFTMarketplace.MarketItem[]",
          "name": "",
          "type": "tuple[]"
        }
      ],
      "stateMutability": "view",
      "type": "function"
    },
    {
      "inputs": [
        {
          "internalType": "uint256",
          "name": "tokenId",
          "type": "uint256"
        }
      ],
      "name": "getApproved",
      "outputs": [
        {
          "internalType": "address",
          "name": "",
          "type": "address"
        }
      ],
      "stateMutability": "view",
      "type": "function"
    },
    {
      "inputs": [],
      "name": "getListingPrice",
      "outputs": [
        {
          "internalType": "uint256",
          "name": "",
          "type": "uint256"
        }
      ],
      "stateMutability": "view",
      "type": "function"
    },
    {
      "inputs": [
        {
          "internalType": "address",
          "name": "owner",
          "type": "address"
        },
        {
          "internalType": "address",
          "name": "operator",
          "type": "address"
        }
      ],
      "name": "isApprovedForAll",
      "outputs": [
        {
          "internalType": "bool",
          "name": "",
          "type": "bool"
        }
      ],
      "stateMutability": "view",
      "type": "function"
    },
    {
      "inputs": [],
      "name": "name",
      "outputs": [
        {
          "internalType": "string",
          "name": "",
          "type": "string"
        }
      ],
      "stateMutability": "view",
      "type": "function"
    },
    {
      "inputs": [
        {
          "internalType": "uint256",
          "name": "tokenId",
          "type": "uint256"
        }
      ],
      "name": "ownerOf",
      "outputs": [
        {
          "internalType": "address",
          "name": "",
          "type": "address"
        }
      ],
      "stateMutability": "view",
      "type": "function"
    },
    {
      "inputs": [
        {
          "internalType": "uint256",
          "name": "tokenId",
          "type": "uint256"
        },
        {
          "internalType": "uint256",
          "name": "price",
          "type": "uint256"
        }
      ],
      "name": "resellToken",
      "outputs": [],
      "stateMutability": "payable",
      "type": "function"
    },
    {
      "inputs": [
        {
          "internalType": "address",
          "name": "from",
          "type": "address"
        },
        {
          "internalType": "address",
          "name": "to",
          "type": "address"
        },
        {
          "internalType": "uint256",
          "name": "tokenId",
          "type": "uint256"
        }
      ],
      "name": "safeTransferFrom",
      "outputs": [],
      "stateMutability": "nonpayable",
      "type": "function"
    },
    {
      "inputs": [
        {
          "internalType": "address",
          "name": "from",
          "type": "address"
        },
        {
          "internalType": "address",
          "name": "to",
          "type": "address"
        },
        {
          "internalType": "uint256",
          "name": "tokenId",
          "type": "uint256"
        },
        {
          "internalType": "bytes",
          "name": "_data",
          "type": "bytes"
        }
      ],
      "name": "safeTransferFrom",
      "outputs": [],
      "stateMutability": "nonpayable",
      "type": "function"
    },
    {
      "inputs": [
        {
          "internalType": "address",
          "name": "operator",
          "type": "address"
        },
        {
          "internalType": "bool",
          "name": "approved",
          "type": "bool"
        }
      ],
      "name": "setApprovalForAll",
      "outputs": [],
      "stateMutability": "nonpayable",
      "type": "function"
    },
    {
      "inputs": [
        {
          "internalType": "bytes4",
          "name": "interfaceId",
          "type": "bytes4"
        }
      ],
      "name": "supportsInterface",
      "outputs": [
        {
          "internalType": "bool",
          "name": "",
          "type": "bool"
        }
      ],
      "stateMutability": "view",
      "type": "function"
    },
    {
      "inputs": [],
      "name": "symbol",
      "outputs": [
        {
          "internalType": "string",
          "name": "",
          "type": "string"
        }
      ],
      "stateMutability": "view",
      "type": "function"
    },
    {
      "inputs": [
        {
          "internalType": "uint256",
          "name": "tokenId",
          "type": "uint256"
        }
      ],
      "name": "tokenURI",
      "outputs": [
        {
          "internalType": "string",
          "name": "",
          "type": "string"
        }
      ],
      "stateMutability": "view",
      "type": "function"
    },
    {
      "inputs": [
        {
          "internalType": "address",
          "name": "from",
          "type": "address"
        },
        {
          "internalType": "address",
          "name": "to",
          "type": "address"
        },
        {
          "internalType": "uint256",
          "name": "tokenId",
          "type": "uint256"
        }
      ],
      "name": "transferFrom",
      "outputs": [],
      "stateMutability": "nonpayable",
      "type": "function"
    },
    {
      "inputs": [
        {
          "internalType": "uint256",
          "name": "_listingPrice",
          "type": "uint256"
        }
      ],
      "name": "updateListingPrice",
      "outputs": [],
      "stateMutability": "payable",
      "type": "function"
    }
  ],
  "bytecode": "0x60806040526658d15e176280006009553480156200001c57600080fd5b506040518060400160405280601081526020017f4d657461766572736520546f6b656e73000000000000000000000000000000008152506040518060400160405280600481526020017f4d455454000000000000000000000000000000000000000000000000000000008152508160009080519060200190620000a192919062000104565b508060019080519060200190620000ba92919062000104565b50505033600a60006101000a81548173ffffffffffffffffffffffffffffffffffffffff021916908373ffffffffffffffffffffffffffffffffffffffff16021790555062000219565b8280546200011290620001b4565b90600052602060002090601f01602090048101928262000136576000855562000182565b82601f106200015157805160ff191683800117855562000182565b8280016001018555821562000182579182015b828111156200018157825182559160200191906001019062000164565b5b50905062000191919062000195565b5090565b5b80821115620001b057600081600090555060010162000196565b5090565b60006002820490506001821680620001cd57607f821691505b60208210811415620001e457620001e3620001ea565b5b50919050565b7f4e487b7100000000000000000000000000000000000000000000000000000000600052602260045260246000fd5b61435d80620002296000396000f3fe60806040526004361061012a5760003560e01c80636352211e116100ab578063ae677aa31161006f578063ae677aa3146103f9578063b88d4fde14610415578063be9af5361461043e578063c87b56dd1461045a578063e219fc7514610497578063e985e9c5146104b35761012a565b80636352211e146102fb57806370a082311461033857806372b3b6201461037557806395d89b41146103a5578063a22cb465146103d05761012a565b806312e85585116100f257806312e8558514610228578063202e37401461025357806323b872dd1461027e57806342842e0e146102a757806345f8fa80146102d05761012a565b806301ffc9a71461012f57806306fdde031461016c578063081812fc14610197578063095ea7b3146101d45780630f08efe0146101fd575b600080fd5b34801561013b57600080fd5b5061015660048036038101906101519190612e9d565b6104f0565b6040516101639190613577565b60405180910390f35b34801561017857600080fd5b506101816105d2565b60405161018e9190613592565b60405180910390f35b3480156101a357600080fd5b506101be60048036038101906101b99190612f43565b610664565b6040516101cb91906134a9565b60405180910390f35b3480156101e057600080fd5b506101fb60048036038101906101f69190612e61565b6106e9565b005b34801561020957600080fd5b50610212610801565b60405161021f9190613555565b60405180910390f35b34801561023457600080fd5b5061023d610ab6565b60405161024a9190613874565b60405180910390f35b34801561025f57600080fd5b50610268610ac0565b6040516102759190613555565b60405180910390f35b34801561028a57600080fd5b506102a560048036038101906102a09190612d5b565b610dfa565b005b3480156102b357600080fd5b506102ce60048036038101906102c99190612d5b565b610e5a565b005b3480156102dc57600080fd5b506102e5610e7a565b6040516102f29190613555565b60405180910390f35b34801561030757600080fd5b50610322600480360381019061031d9190612f43565b6111b4565b60405161032f91906134a9565b60405180910390f35b34801561034457600080fd5b5061035f600480360381019061035a9190612cf6565b611266565b60405161036c9190613874565b60405180910390f35b61038f600480360381019061038a9190612eef565b61131e565b60405161039c9190613874565b60405180910390f35b3480156103b157600080fd5b506103ba611360565b6040516103c79190613592565b60405180910390f35b3480156103dc57600080fd5b506103f760048036038101906103f29190612e25565b6113f2565b005b610413600480360381019061040e9190612f43565b611408565b005b34801561042157600080fd5b5061043c60048036038101906104379190612daa565b6114a2565b005b61045860048036038101906104539190612f43565b611504565b005b34801561046657600080fd5b50610481600480360381019061047c9190612f43565b61173c565b60405161048e9190613592565b60405180910390f35b6104b160048036038101906104ac9190612f6c565b61188e565b005b3480156104bf57600080fd5b506104da60048036038101906104d59190612d1f565b611a83565b6040516104e79190613577565b60405180910390f35b60007f80ac58cd000000000000000000000000000000000000000000000000000000007bffffffffffffffffffffffffffffffffffffffffffffffffffffffff1916827bffffffffffffffffffffffffffffffffffffffffffffffffffffffff191614806105bb57507f5b5e139f000000000000000000000000000000000000000000000000000000007bffffffffffffffffffffffffffffffffffffffffffffffffffffffff1916827bffffffffffffffffffffffffffffffffffffffffffffffffffffffff1916145b806105cb57506105ca82611b17565b5b9050919050565b6060600080546105e190613b15565b80601f016020809104026020016040519081016040528092919081815260200182805461060d90613b15565b801561065a5780601f1061062f5761010080835404028352916020019161065a565b820191906000526020600020905b81548152906001019060200180831161063d57829003601f168201915b5050505050905090565b600061066f82611b81565b6106ae576040517f08c379a00000000000000000000000000000000000000000000000000000000081526004016106a5906137b4565b60405180910390fd5b6004600083815260200190815260200160002060009054906101000a900473ffffffffffffffffffffffffffffffffffffffff169050919050565b60006106f4826111b4565b90508073ffffffffffffffffffffffffffffffffffffffff168373ffffffffffffffffffffffffffffffffffffffff161415610765576040517f08c379a000000000000000000000000000000000000000000000000000000000815260040161075c906137f4565b60405180910390fd5b8073ffffffffffffffffffffffffffffffffffffffff16610784611bed565b73ffffffffffffffffffffffffffffffffffffffff1614806107b357506107b2816107ad611bed565b611a83565b5b6107f2576040517f08c379a00000000000000000000000000000000000000000000000000000000081526004016107e9906136b4565b60405180910390fd5b6107fc8383611bf5565b505050565b6060600061080f6007611cae565b9050600061081d6008611cae565b6108276007611cae565b6108319190613a19565b90506000808267ffffffffffffffff811115610876577f4e487b7100000000000000000000000000000000000000000000000000000000600052604160045260246000fd5b6040519080825280602002602001820160405280156108af57816020015b61089c612abd565b8152602001906001900390816108945790505b50905060005b84811015610aab573073ffffffffffffffffffffffffffffffffffffffff16600b60006001846108e59190613992565b815260200190815260200160002060020160009054906101000a900473ffffffffffffffffffffffffffffffffffffffff1673ffffffffffffffffffffffffffffffffffffffff161415610a985760006001826109429190613992565b90506000600b60008381526020019081526020016000209050806040518060a0016040529081600082015481526020016001820160009054906101000a900473ffffffffffffffffffffffffffffffffffffffff1673ffffffffffffffffffffffffffffffffffffffff1673ffffffffffffffffffffffffffffffffffffffff1681526020016002820160009054906101000a900473ffffffffffffffffffffffffffffffffffffffff1673ffffffffffffffffffffffffffffffffffffffff1673ffffffffffffffffffffffffffffffffffffffff168152602001600382015481526020016004820160009054906101000a900460ff161515151581525050848681518110610a7b577f4e487b7100000000000000000000000000000000000000000000000000000000600052603260045260246000fd5b6020026020010181905250600185610a939190613992565b945050505b8080610aa390613b78565b9150506108b5565b508094505050505090565b6000600954905090565b60606000610ace6007611cae565b905060008060005b83811015610b77573373ffffffffffffffffffffffffffffffffffffffff16600b6000600184610b069190613992565b815260200190815260200160002060020160009054906101000a900473ffffffffffffffffffffffffffffffffffffffff1673ffffffffffffffffffffffffffffffffffffffff161415610b6457600183610b619190613992565b92505b8080610b6f90613b78565b915050610ad6565b5060008267ffffffffffffffff811115610bba577f4e487b7100000000000000000000000000000000000000000000000000000000600052604160045260246000fd5b604051908082528060200260200182016040528015610bf357816020015b610be0612abd565b815260200190600190039081610bd85790505b50905060005b84811015610def573373ffffffffffffffffffffffffffffffffffffffff16600b6000600184610c299190613992565b815260200190815260200160002060020160009054906101000a900473ffffffffffffffffffffffffffffffffffffffff1673ffffffffffffffffffffffffffffffffffffffff161415610ddc576000600182610c869190613992565b90506000600b60008381526020019081526020016000209050806040518060a0016040529081600082015481526020016001820160009054906101000a900473ffffffffffffffffffffffffffffffffffffffff1673ffffffffffffffffffffffffffffffffffffffff1673ffffffffffffffffffffffffffffffffffffffff1681526020016002820160009054906101000a900473ffffffffffffffffffffffffffffffffffffffff1673ffffffffffffffffffffffffffffffffffffffff1673ffffffffffffffffffffffffffffffffffffffff168152602001600382015481526020016004820160009054906101000a900460ff161515151581525050848681518110610dbf577f4e487b7100000000000000000000000000000000000000000000000000000000600052603260045260246000fd5b6020026020010181905250600185610dd79190613992565b945050505b8080610de790613b78565b915050610bf9565b508094505050505090565b610e0b610e05611bed565b82611cbc565b610e4a576040517f08c379a0000000000000000000000000000000000000000000000000000000008152600401610e4190613834565b60405180910390fd5b610e55838383611d9a565b505050565b610e75838383604051806020016040528060008152506114a2565b505050565b60606000610e886007611cae565b905060008060005b83811015610f31573373ffffffffffffffffffffffffffffffffffffffff16600b6000600184610ec09190613992565b815260200190815260200160002060010160009054906101000a900473ffffffffffffffffffffffffffffffffffffffff1673ffffffffffffffffffffffffffffffffffffffff161415610f1e57600183610f1b9190613992565b92505b8080610f2990613b78565b915050610e90565b5060008267ffffffffffffffff811115610f74577f4e487b7100000000000000000000000000000000000000000000000000000000600052604160045260246000fd5b604051908082528060200260200182016040528015610fad57816020015b610f9a612abd565b815260200190600190039081610f925790505b50905060005b848110156111a9573373ffffffffffffffffffffffffffffffffffffffff16600b6000600184610fe39190613992565b815260200190815260200160002060010160009054906101000a900473ffffffffffffffffffffffffffffffffffffffff1673ffffffffffffffffffffffffffffffffffffffff1614156111965760006001826110409190613992565b90506000600b60008381526020019081526020016000209050806040518060a0016040529081600082015481526020016001820160009054906101000a900473ffffffffffffffffffffffffffffffffffffffff1673ffffffffffffffffffffffffffffffffffffffff1673ffffffffffffffffffffffffffffffffffffffff1681526020016002820160009054906101000a900473ffffffffffffffffffffffffffffffffffffffff1673ffffffffffffffffffffffffffffffffffffffff1673ffffffffffffffffffffffffffffffffffffffff168152602001600382015481526020016004820160009054906101000a900460ff161515151581525050848681518110611179577f4e487b7100000000000000000000000000000000000000000000000000000000600052603260045260246000fd5b60200260200101819052506001856111919190613992565b945050505b80806111a190613b78565b915050610fb3565b508094505050505090565b6000806002600084815260200190815260200160002060009054906101000a900473ffffffffffffffffffffffffffffffffffffffff169050600073ffffffffffffffffffffffffffffffffffffffff168173ffffffffffffffffffffffffffffffffffffffff16141561125d576040517f08c379a0000000000000000000000000000000000000000000000000000000008152600401611254906136f4565b60405180910390fd5b80915050919050565b60008073ffffffffffffffffffffffffffffffffffffffff168273ffffffffffffffffffffffffffffffffffffffff1614156112d7576040517f08c379a00000000000000000000000000000000000000000000000000000000081526004016112ce906136d4565b60405180910390fd5b600360008373ffffffffffffffffffffffffffffffffffffffff1673ffffffffffffffffffffffffffffffffffffffff168152602001908152602001600020549050919050565b600061132a6007612001565b60006113366007611cae565b90506113423382612017565b61134c81856121f1565b6113568184612265565b8091505092915050565b60606001805461136f90613b15565b80601f016020809104026020016040519081016040528092919081815260200182805461139b90613b15565b80156113e85780601f106113bd576101008083540402835291602001916113e8565b820191906000526020600020905b8154815290600101906020018083116113cb57829003601f168201915b5050505050905090565b6114046113fd611bed565b8383612469565b5050565b3373ffffffffffffffffffffffffffffffffffffffff16600a60009054906101000a900473ffffffffffffffffffffffffffffffffffffffff1673ffffffffffffffffffffffffffffffffffffffff1614611498576040517f08c379a000000000000000000000000000000000000000000000000000000000815260040161148f90613634565b60405180910390fd5b8060098190555050565b6114b36114ad611bed565b83611cbc565b6114f2576040517f08c379a00000000000000000000000000000000000000000000000000000000081526004016114e990613834565b60405180910390fd5b6114fe848484846125d6565b50505050565b6000600b6000838152602001908152602001600020600301549050803414611561576040517f08c379a000000000000000000000000000000000000000000000000000000000815260040161155890613734565b60405180910390fd5b33600b600084815260200190815260200160002060020160006101000a81548173ffffffffffffffffffffffffffffffffffffffff021916908373ffffffffffffffffffffffffffffffffffffffff1602179055506001600b600084815260200190815260200160002060040160006101000a81548160ff0219169083151502179055506000600b600084815260200190815260200160002060010160006101000a81548173ffffffffffffffffffffffffffffffffffffffff021916908373ffffffffffffffffffffffffffffffffffffffff1602179055506116456008612001565b611650303384611d9a565b600a60009054906101000a900473ffffffffffffffffffffffffffffffffffffffff1673ffffffffffffffffffffffffffffffffffffffff166108fc6009549081150290604051600060405180830381858888f193505050501580156116ba573d6000803e3d6000fd5b50600b600083815260200190815260200160002060010160009054906101000a900473ffffffffffffffffffffffffffffffffffffffff1673ffffffffffffffffffffffffffffffffffffffff166108fc349081150290604051600060405180830381858888f19350505050158015611737573d6000803e3d6000fd5b505050565b606061174782611b81565b611786576040517f08c379a000000000000000000000000000000000000000000000000000000000815260040161177d90613774565b60405180910390fd5b60006006600084815260200190815260200160002080546117a690613b15565b80601f01602080910402602001604051908101604052809291908181526020018280546117d290613b15565b801561181f5780601f106117f45761010080835404028352916020019161181f565b820191906000526020600020905b81548152906001019060200180831161180257829003601f168201915b505050505090506000611830612632565b9050600081511415611846578192505050611889565b60008251111561187b578082604051602001611863929190613485565b60405160208183030381529060405292505050611889565b61188484612649565b925050505b919050565b3373ffffffffffffffffffffffffffffffffffffffff16600b600084815260200190815260200160002060020160009054906101000a900473ffffffffffffffffffffffffffffffffffffffff1673ffffffffffffffffffffffffffffffffffffffff1614611932576040517f08c379a000000000000000000000000000000000000000000000000000000000815260040161192990613794565b60405180910390fd5b6009543414611976576040517f08c379a000000000000000000000000000000000000000000000000000000000815260040161196d90613814565b60405180910390fd5b6000600b600084815260200190815260200160002060040160006101000a81548160ff02191690831515021790555080600b60008481526020019081526020016000206003018190555033600b600084815260200190815260200160002060010160006101000a81548173ffffffffffffffffffffffffffffffffffffffff021916908373ffffffffffffffffffffffffffffffffffffffff16021790555030600b600084815260200190815260200160002060020160006101000a81548173ffffffffffffffffffffffffffffffffffffffff021916908373ffffffffffffffffffffffffffffffffffffffff160217905550611a7460086126f0565b611a7f333084611d9a565b5050565b6000600560008473ffffffffffffffffffffffffffffffffffffffff1673ffffffffffffffffffffffffffffffffffffffff16815260200190815260200160002060008373ffffffffffffffffffffffffffffffffffffffff1673ffffffffffffffffffffffffffffffffffffffff16815260200190815260200160002060009054906101000a900460ff16905092915050565b60007f01ffc9a7000000000000000000000000000000000000000000000000000000007bffffffffffffffffffffffffffffffffffffffffffffffffffffffff1916827bffffffffffffffffffffffffffffffffffffffffffffffffffffffff1916149050919050565b60008073ffffffffffffffffffffffffffffffffffffffff166002600084815260200190815260200160002060009054906101000a900473ffffffffffffffffffffffffffffffffffffffff1673ffffffffffffffffffffffffffffffffffffffff1614159050919050565b600033905090565b816004600083815260200190815260200160002060006101000a81548173ffffffffffffffffffffffffffffffffffffffff021916908373ffffffffffffffffffffffffffffffffffffffff160217905550808273ffffffffffffffffffffffffffffffffffffffff16611c68836111b4565b73ffffffffffffffffffffffffffffffffffffffff167f8c5be1e5ebec7d5bd14f71427d1e84f3dd0314c0f7b2291e5b200ac8c7c3b92560405160405180910390a45050565b600081600001549050919050565b6000611cc782611b81565b611d06576040517f08c379a0000000000000000000000000000000000000000000000000000000008152600401611cfd90613694565b60405180910390fd5b6000611d11836111b4565b90508073ffffffffffffffffffffffffffffffffffffffff168473ffffffffffffffffffffffffffffffffffffffff161480611d8057508373ffffffffffffffffffffffffffffffffffffffff16611d6884610664565b73ffffffffffffffffffffffffffffffffffffffff16145b80611d915750611d908185611a83565b5b91505092915050565b8273ffffffffffffffffffffffffffffffffffffffff16611dba826111b4565b73ffffffffffffffffffffffffffffffffffffffff1614611e10576040517f08c379a0000000000000000000000000000000000000000000000000000000008152600401611e07906135f4565b60405180910390fd5b600073ffffffffffffffffffffffffffffffffffffffff168273ffffffffffffffffffffffffffffffffffffffff161415611e80576040517f08c379a0000000000000000000000000000000000000000000000000000000008152600401611e7790613654565b60405180910390fd5b611e8b83838361274c565b611e96600082611bf5565b6001600360008573ffffffffffffffffffffffffffffffffffffffff1673ffffffffffffffffffffffffffffffffffffffff1681526020019081526020016000206000828254611ee69190613a19565b925050819055506001600360008473ffffffffffffffffffffffffffffffffffffffff1673ffffffffffffffffffffffffffffffffffffffff1681526020019081526020016000206000828254611f3d9190613992565b92505081905550816002600083815260200190815260200160002060006101000a81548173ffffffffffffffffffffffffffffffffffffffff021916908373ffffffffffffffffffffffffffffffffffffffff160217905550808273ffffffffffffffffffffffffffffffffffffffff168473ffffffffffffffffffffffffffffffffffffffff167fddf252ad1be2c89b69c2b068fc378daa952ba7f163c4a11628f55a4df523b3ef60405160405180910390a4611ffc838383612751565b505050565b6001816000016000828254019250508190555050565b600073ffffffffffffffffffffffffffffffffffffffff168273ffffffffffffffffffffffffffffffffffffffff161415612087576040517f08c379a000000000000000000000000000000000000000000000000000000000815260040161207e90613754565b60405180910390fd5b61209081611b81565b156120d0576040517f08c379a00000000000000000000000000000000000000000000000000000000081526004016120c790613614565b60405180910390fd5b6120dc6000838361274c565b6001600360008473ffffffffffffffffffffffffffffffffffffffff1673ffffffffffffffffffffffffffffffffffffffff168152602001908152602001600020600082825461212c9190613992565b92505081905550816002600083815260200190815260200160002060006101000a81548173ffffffffffffffffffffffffffffffffffffffff021916908373ffffffffffffffffffffffffffffffffffffffff160217905550808273ffffffffffffffffffffffffffffffffffffffff16600073ffffffffffffffffffffffffffffffffffffffff167fddf252ad1be2c89b69c2b068fc378daa952ba7f163c4a11628f55a4df523b3ef60405160405180910390a46121ed60008383612751565b5050565b6121fa82611b81565b612239576040517f08c379a000000000000000000000000000000000000000000000000000000000815260040161223090613714565b60405180910390fd5b80600660008481526020019081526020016000209080519060200190612260929190612b1a565b505050565b60008110156122a9576040517f08c379a00000000000000000000000000000000000000000000000000000000081526004016122a090613854565b60405180910390fd5b60095434146122ed576040517f08c379a00000000000000000000000000000000000000000000000000000000081526004016122e490613814565b60405180910390fd5b6040518060a001604052808381526020013373ffffffffffffffffffffffffffffffffffffffff1681526020013073ffffffffffffffffffffffffffffffffffffffff16815260200182815260200160001515815250600b60008481526020019081526020016000206000820151816000015560208201518160010160006101000a81548173ffffffffffffffffffffffffffffffffffffffff021916908373ffffffffffffffffffffffffffffffffffffffff16021790555060408201518160020160006101000a81548173ffffffffffffffffffffffffffffffffffffffff021916908373ffffffffffffffffffffffffffffffffffffffff1602179055506060820151816003015560808201518160040160006101000a81548160ff021916908315150217905550905050612426333084611d9a565b817fb640004f1d14576d0c209e240cad0410e0d8c0c33a09375861fbadae2588a98d333084600060405161245d94939291906134c4565b60405180910390a25050565b8173ffffffffffffffffffffffffffffffffffffffff168373ffffffffffffffffffffffffffffffffffffffff1614156124d8576040517f08c379a00000000000000000000000000000000000000000000000000000000081526004016124cf90613674565b60405180910390fd5b80600560008573ffffffffffffffffffffffffffffffffffffffff1673ffffffffffffffffffffffffffffffffffffffff16815260200190815260200160002060008473ffffffffffffffffffffffffffffffffffffffff1673ffffffffffffffffffffffffffffffffffffffff16815260200190815260200160002060006101000a81548160ff0219169083151502179055508173ffffffffffffffffffffffffffffffffffffffff168373ffffffffffffffffffffffffffffffffffffffff167f17307eab39ab6107e8899845ad3d59bd9653f200f220920489ca2b5937696c31836040516125c99190613577565b60405180910390a3505050565b6125e1848484611d9a565b6125ed84848484612756565b61262c576040517f08c379a0000000000000000000000000000000000000000000000000000000008152600401612623906135d4565b60405180910390fd5b50505050565b606060405180602001604052806000815250905090565b606061265482611b81565b612693576040517f08c379a000000000000000000000000000000000000000000000000000000000815260040161268a906137d4565b60405180910390fd5b600061269d612632565b905060008151116126bd57604051806020016040528060008152506126e8565b806126c7846128ed565b6040516020016126d8929190613485565b6040516020818303038152906040525b915050919050565b6000816000015490506000811161273c576040517f08c379a0000000000000000000000000000000000000000000000000000000008152600401612733906135b4565b60405180910390fd5b6001810382600001819055505050565b505050565b505050565b60006127778473ffffffffffffffffffffffffffffffffffffffff16612a9a565b156128e0578373ffffffffffffffffffffffffffffffffffffffff1663150b7a026127a0611bed565b8786866040518563ffffffff1660e01b81526004016127c29493929190613509565b602060405180830381600087803b1580156127dc57600080fd5b505af192505050801561280d57506040513d601f19601f8201168201806040525081019061280a9190612ec6565b60015b612890573d806000811461283d576040519150601f19603f3d011682016040523d82523d6000602084013e612842565b606091505b50600081511415612888576040517f08c379a000000000000000000000000000000000000000000000000000000000815260040161287f906135d4565b60405180910390fd5b805181602001fd5b63150b7a0260e01b7bffffffffffffffffffffffffffffffffffffffffffffffffffffffff1916817bffffffffffffffffffffffffffffffffffffffffffffffffffffffff1916149150506128e5565b600190505b949350505050565b60606000821415612935576040518060400160405280600181526020017f30000000000000000000000000000000000000000000000000000000000000008152509050612a95565b600082905060005b6000821461296757808061295090613b78565b915050600a8261296091906139e8565b915061293d565b60008167ffffffffffffffff8111156129a9577f4e487b7100000000000000000000000000000000000000000000000000000000600052604160045260246000fd5b6040519080825280601f01601f1916602001820160405280156129db5781602001600182028036833780820191505090505b5090505b60008514612a8e576001826129f49190613a19565b9150600a85612a039190613bc1565b6030612a0f9190613992565b60f81b818381518110612a4b577f4e487b7100000000000000000000000000000000000000000000000000000000600052603260045260246000fd5b60200101907effffffffffffffffffffffffffffffffffffffffffffffffffffffffffffff1916908160001a905350600a85612a8791906139e8565b94506129df565b8093505050505b919050565b6000808273ffffffffffffffffffffffffffffffffffffffff163b119050919050565b6040518060a0016040528060008152602001600073ffffffffffffffffffffffffffffffffffffffff168152602001600073ffffffffffffffffffffffffffffffffffffffff168152602001600081526020016000151581525090565b828054612b2690613b15565b90600052602060002090601f016020900481019282612b485760008555612b8f565b82601f10612b6157805160ff1916838001178555612b8f565b82800160010185558215612b8f579182015b82811115612b8e578251825591602001919060010190612b73565b5b509050612b9c9190612ba0565b5090565b5b80821115612bb9576000816000905550600101612ba1565b5090565b6000612bd0612bcb846138b4565b61388f565b905082815260208101848484011115612be857600080fd5b612bf3848285613ad3565b509392505050565b6000612c0e612c09846138e5565b61388f565b905082815260208101848484011115612c2657600080fd5b612c31848285613ad3565b509392505050565b600081359050612c48816142cb565b92915050565b600081359050612c5d816142e2565b92915050565b600081359050612c72816142f9565b92915050565b600081519050612c87816142f9565b92915050565b600082601f830112612c9e57600080fd5b8135612cae848260208601612bbd565b91505092915050565b600082601f830112612cc857600080fd5b8135612cd8848260208601612bfb565b91505092915050565b600081359050612cf081614310565b92915050565b600060208284031215612d0857600080fd5b6000612d1684828501612c39565b91505092915050565b60008060408385031215612d3257600080fd5b6000612d4085828601612c39565b9250506020612d5185828601612c39565b9150509250929050565b600080600060608486031215612d7057600080fd5b6000612d7e86828701612c39565b9350506020612d8f86828701612c39565b9250506040612da086828701612ce1565b9150509250925092565b60008060008060808587031215612dc057600080fd5b6000612dce87828801612c39565b9450506020612ddf87828801612c39565b9350506040612df087828801612ce1565b925050606085013567ffffffffffffffff811115612e0d57600080fd5b612e1987828801612c8d565b91505092959194509250565b60008060408385031215612e3857600080fd5b6000612e4685828601612c39565b9250506020612e5785828601612c4e565b9150509250929050565b60008060408385031215612e7457600080fd5b6000612e8285828601612c39565b9250506020612e9385828601612ce1565b9150509250929050565b600060208284031215612eaf57600080fd5b6000612ebd84828501612c63565b91505092915050565b600060208284031215612ed857600080fd5b6000612ee684828501612c78565b91505092915050565b60008060408385031215612f0257600080fd5b600083013567ffffffffffffffff811115612f1c57600080fd5b612f2885828601612cb7565b9250506020612f3985828601612ce1565b9150509250929050565b600060208284031215612f5557600080fd5b6000612f6384828501612ce1565b91505092915050565b60008060408385031215612f7f57600080fd5b6000612f8d85828601612ce1565b9250506020612f9e85828601612ce1565b9150509250929050565b6000612fb483836133ff565b60a08301905092915050565b612fc981613a5f565b82525050565b612fd881613a4d565b82525050565b6000612fe982613926565b612ff38185613954565b9350612ffe83613916565b8060005b8381101561302f5781516130168882612fa8565b975061302183613947565b925050600181019050613002565b5085935050505092915050565b61304581613a71565b82525050565b61305481613a71565b82525050565b600061306582613931565b61306f8185613965565b935061307f818560208601613ae2565b61308881613cae565b840191505092915050565b600061309e8261393c565b6130a88185613976565b93506130b8818560208601613ae2565b6130c181613cae565b840191505092915050565b60006130d78261393c565b6130e18185613987565b93506130f1818560208601613ae2565b80840191505092915050565b600061310a601b83613976565b915061311582613cbf565b602082019050919050565b600061312d603283613976565b915061313882613ce8565b604082019050919050565b6000613150602583613976565b915061315b82613d37565b604082019050919050565b6000613173601c83613976565b915061317e82613d86565b602082019050919050565b6000613196603383613976565b91506131a182613daf565b604082019050919050565b60006131b9602483613976565b91506131c482613dfe565b604082019050919050565b60006131dc601983613976565b91506131e782613e4d565b602082019050919050565b60006131ff602c83613976565b915061320a82613e76565b604082019050919050565b6000613222603883613976565b915061322d82613ec5565b604082019050919050565b6000613245602a83613976565b915061325082613f14565b604082019050919050565b6000613268602983613976565b915061327382613f63565b604082019050919050565b600061328b602e83613976565b915061329682613fb2565b604082019050919050565b60006132ae604083613976565b91506132b982614001565b604082019050919050565b60006132d1602083613976565b91506132dc82614050565b602082019050919050565b60006132f4603183613976565b91506132ff82614079565b604082019050919050565b6000613317602a83613976565b9150613322826140c8565b604082019050919050565b600061333a602c83613976565b915061334582614117565b604082019050919050565b600061335d602f83613976565b915061336882614166565b604082019050919050565b6000613380602183613976565b915061338b826141b5565b604082019050919050565b60006133a3602483613976565b91506133ae82614204565b604082019050919050565b60006133c6603183613976565b91506133d182614253565b604082019050919050565b60006133e9601683613976565b91506133f4826142a2565b602082019050919050565b60a0820160008201516134156000850182613467565b5060208201516134286020850182612fc0565b50604082015161343b6040850182612fc0565b50606082015161344e6060850182613467565b506080820151613461608085018261303c565b50505050565b61347081613ac9565b82525050565b61347f81613ac9565b82525050565b600061349182856130cc565b915061349d82846130cc565b91508190509392505050565b60006020820190506134be6000830184612fcf565b92915050565b60006080820190506134d96000830187612fcf565b6134e66020830186612fcf565b6134f36040830185613476565b613500606083018461304b565b95945050505050565b600060808201905061351e6000830187612fcf565b61352b6020830186612fcf565b6135386040830185613476565b818103606083015261354a818461305a565b905095945050505050565b6000602082019050818103600083015261356f8184612fde565b905092915050565b600060208201905061358c600083018461304b565b92915050565b600060208201905081810360008301526135ac8184613093565b905092915050565b600060208201905081810360008301526135cd816130fd565b9050919050565b600060208201905081810360008301526135ed81613120565b9050919050565b6000602082019050818103600083015261360d81613143565b9050919050565b6000602082019050818103600083015261362d81613166565b9050919050565b6000602082019050818103600083015261364d81613189565b9050919050565b6000602082019050818103600083015261366d816131ac565b9050919050565b6000602082019050818103600083015261368d816131cf565b9050919050565b600060208201905081810360008301526136ad816131f2565b9050919050565b600060208201905081810360008301526136cd81613215565b9050919050565b600060208201905081810360008301526136ed81613238565b9050919050565b6000602082019050818103600083015261370d8161325b565b9050919050565b6000602082019050818103600083015261372d8161327e565b9050919050565b6000602082019050818103600083015261374d816132a1565b9050919050565b6000602082019050818103600083015261376d816132c4565b9050919050565b6000602082019050818103600083015261378d816132e7565b9050919050565b600060208201905081810360008301526137ad8161330a565b9050919050565b600060208201905081810360008301526137cd8161332d565b9050919050565b600060208201905081810360008301526137ed81613350565b9050919050565b6000602082019050818103600083015261380d81613373565b9050919050565b6000602082019050818103600083015261382d81613396565b9050919050565b6000602082019050818103600083015261384d816133b9565b9050919050565b6000602082019050818103600083015261386d816133dc565b9050919050565b60006020820190506138896000830184613476565b92915050565b60006138996138aa565b90506138a58282613b47565b919050565b6000604051905090565b600067ffffffffffffffff8211156138cf576138ce613c7f565b5b6138d882613cae565b9050602081019050919050565b600067ffffffffffffffff821115613900576138ff613c7f565b5b61390982613cae565b9050602081019050919050565b6000819050602082019050919050565b600081519050919050565b600081519050919050565b600081519050919050565b6000602082019050919050565b600082825260208201905092915050565b600082825260208201905092915050565b600082825260208201905092915050565b600081905092915050565b600061399d82613ac9565b91506139a883613ac9565b9250827fffffffffffffffffffffffffffffffffffffffffffffffffffffffffffffffff038211156139dd576139dc613bf2565b5b828201905092915050565b60006139f382613ac9565b91506139fe83613ac9565b925082613a0e57613a0d613c21565b5b828204905092915050565b6000613a2482613ac9565b9150613a2f83613ac9565b925082821015613a4257613a41613bf2565b5b828203905092915050565b6000613a5882613aa9565b9050919050565b6000613a6a82613aa9565b9050919050565b60008115159050919050565b60007fffffffff0000000000000000000000000000000000000000000000000000000082169050919050565b600073ffffffffffffffffffffffffffffffffffffffff82169050919050565b6000819050919050565b82818337600083830152505050565b60005b83811015613b00578082015181840152602081019050613ae5565b83811115613b0f576000848401525b50505050565b60006002820490506001821680613b2d57607f821691505b60208210811415613b4157613b40613c50565b5b50919050565b613b5082613cae565b810181811067ffffffffffffffff82111715613b6f57613b6e613c7f565b5b80604052505050565b6000613b8382613ac9565b91507fffffffffffffffffffffffffffffffffffffffffffffffffffffffffffffffff821415613bb657613bb5613bf2565b5b600182019050919050565b6000613bcc82613ac9565b9150613bd783613ac9565b925082613be757613be6613c21565b5b828206905092915050565b7f4e487b7100000000000000000000000000000000000000000000000000000000600052601160045260246000fd5b7f4e487b7100000000000000000000000000000000000000000000000000000000600052601260045260246000fd5b7f4e487b7100000000000000000000000000000000000000000000000000000000600052602260045260246000fd5b7f4e487b7100000000000000000000000000000000000000000000000000000000600052604160045260246000fd5b6000601f19601f8301169050919050565b7f436f756e7465723a2064656372656d656e74206f766572666c6f770000000000600082015250565b7f4552433732313a207472616e7366657220746f206e6f6e20455243373231526560008201527f63656976657220696d706c656d656e7465720000000000000000000000000000602082015250565b7f4552433732313a207472616e736665722066726f6d20696e636f72726563742060008201527f6f776e6572000000000000000000000000000000000000000000000000000000602082015250565b7f4552433732313a20746f6b656e20616c7265616479206d696e74656400000000600082015250565b7f4f6e6c79206d61726b6574706c616365206f776e65722063616e20757064617460008201527f6520746865206c697374696e6720707269636500000000000000000000000000602082015250565b7f4552433732313a207472616e7366657220746f20746865207a65726f2061646460008201527f7265737300000000000000000000000000000000000000000000000000000000602082015250565b7f4552433732313a20617070726f766520746f2063616c6c657200000000000000600082015250565b7f4552433732313a206f70657261746f7220717565727920666f72206e6f6e657860008201527f697374656e7420746f6b656e0000000000000000000000000000000000000000602082015250565b7f4552433732313a20617070726f76652063616c6c6572206973206e6f74206f7760008201527f6e6572206e6f7220617070726f76656420666f7220616c6c0000000000000000602082015250565b7f4552433732313a2062616c616e636520717565727920666f7220746865207a6560008201527f726f206164647265737300000000000000000000000000000000000000000000602082015250565b7f4552433732313a206f776e657220717565727920666f72206e6f6e657869737460008201527f656e7420746f6b656e0000000000000000000000000000000000000000000000602082015250565b7f45524337323155524953746f726167653a2055524920736574206f66206e6f6e60008201527f6578697374656e7420746f6b656e000000000000000000000000000000000000602082015250565b7f506c65617365207375626d6974207468652061736b696e67207072696365206960008201527f6e206f7264657220746f20636f6d706c65746520746865207075726368617365602082015250565b7f4552433732313a206d696e7420746f20746865207a65726f2061646472657373600082015250565b7f45524337323155524953746f726167653a2055524920717565727920666f722060008201527f6e6f6e6578697374656e7420746f6b656e000000000000000000000000000000602082015250565b7f4f6e6c79206974656d206f776e65722063616e20706572666f726d207468697360008201527f206f7065726174696f6e00000000000000000000000000000000000000000000602082015250565b7f4552433732313a20617070726f76656420717565727920666f72206e6f6e657860008201527f697374656e7420746f6b656e0000000000000000000000000000000000000000602082015250565b7f4552433732314d657461646174613a2055524920717565727920666f72206e6f60008201527f6e6578697374656e7420746f6b656e0000000000000000000000000000000000602082015250565b7f4552433732313a20617070726f76616c20746f2063757272656e74206f776e6560008201527f7200000000000000000000000000000000000000000000000000000000000000602082015250565b7f5072696365206d75737420626520657175616c20746f206c697374696e67207060008201527f7269636500000000000000000000000000000000000000000000000000000000602082015250565b7f4552433732313a207472616e736665722063616c6c6572206973206e6f74206f60008201527f776e6572206e6f7220617070726f766564000000000000000000000000000000602082015250565b7f5072696365206d75737420626520706f73697469766500000000000000000000600082015250565b6142d481613a4d565b81146142df57600080fd5b50565b6142eb81613a71565b81146142f657600080fd5b50565b61430281613a7d565b811461430d57600080fd5b50565b61431981613ac9565b811461432457600080fd5b5056fea26469706673582212204b2a8a8e5da65d230bc4ffe579d2da32386676d261707994e79d9b2c901ab16364736f6c63430008040033",
  "linkReferences": {},
  "deployedLinkReferences": {}
}